:020000040000fa
:10000000f03f002021030000cf040000cf040000d7
:1000100000000000000000000000000000000000e0
:10002000000000000000000000000000cf040000fd
:100030000000000000000000cf040000cf0400001a
:10004000cf040000cf040000cf040000cf04000064
:10005000cf040000cf040000cf040000cf04000054
:10006000cf040000cf040000cf040000cf04000044
:10007000cf040000cf040000cf040000cf04000034
:10008000cf040000cf040000cf040000cf04000024
:10009000cf040000cf040000cf040000cf04000014
:0c00a000cf040000cf040000cf040000db
:020000040000fa
:1000ac00f8b5c046f8bc08bc9e467047ed0300008e
:1000bc00f8b5c046f8bc08bc9e467047c5030000a6
:020000040000fa
:1000cc0080b500af054b06225a6000f009f800f02d
:1000dc0043f800f075f8c046bd4680bd00400041b5
:1000ec0080b500af8223db051a4a1a608223db0538
:1000fc008022d2031a618223db05562206219954f1
:10010c008223db055722002199548223db054822e8
:10011c00012199548223db0534229b5cdab28223c1
:10012c00db050f218a43d1b2342299548223db059b
:10013c0034229b5cdab28223db0502210a43d1b262
:10014c00342299548223db05802212049a61c04622
:10015c00bd4680bd0001800090b583b000af164b4a
:10016c001a685b685c03d00c2043d90c03009b021b
:10017c009b0a7b60114b7a689a63104b00225a756c
:10018c00c0460e4b9b6904221340042bf9d0c04689
:10019c000a4bdb6810221340102bf9d1074b1b7d47
:1001ac00dbb20649802252421343dbb20b75c046c8
:1001bc00bd4603b090bdc0462060800000100040da
:1001cc0080b500af0e4b832252001a62c0460c4b16
:1001dc005b6804221340042bf9d0094b8322520094
:1001ec005a62c046064b5b6808221340082bf9d0b4
:1001fc00034acc234121d150c046bd4680bdc046e8
:04020c00001c004092
:020000040000fa
:1002100080b582b000af786002e07b68013b7b6014
:100220007b68002bf9d1c046c046bd4602b080bdf8
:1002300080b500af8223db05802212045a61c046dc
:10024000bd4680bd80b500af8223db05802212044d
:100250009a61c046bd4680bd80b500af8223db05f4
:0c02600080221204da61c046bd4680bd59
:020000040000fa
:10026c0000230e4a10b513600d4a13600d4a13603b
:10027c000d4a13600d4a13600d4a5362136101332a
:10028c00936000f035f900f033f90a4c0a4b9c42ac
:10029c0000d310bd08cc9847f8e7c046700000208a
:1002ac000c000020080000200000002004000020aa
:0c02bc0010000020b8000000bc00000092
:020000040000fa
:1002c80080b500af094b0a4a1a60084b80225202d7
:1002d8005a60064bd32252429a81044b1a68034b48
:1002e80002210a431a60c046bd4680bd0004004290
:1002f8000100100080b582b000af0200fb1d1a702b
:10030800044afb1d1b789bb21385c046bd4602b04c
:0803180080bdc0460004004254
:020000040000fa
:100320000d4b002b00d098470c4b002b00d098476a
:1003300000f06cf80a4bff2293430a4a93600a4b81
:1003400098470a4b002b00d09847094b002b00d050
:10035000984700f089f8fee7000000000000000068
:100360000000000000ed00e06d0200000000000051
:040370000000000089
:020000040000fa
:1003740074000020040000000100000000000000e0
:1003840050000020200000000000000000000020b9
:100394005000000000000000700000200400000075
:1003a40000000000780000200400000001000000ac
:1003b40000000000000000000000000066666666a1
:020000040000fa
:1003c40010b5064c2378002b07d1054b002b02d027
:1003d400044800e000bf0123237010bd500000203a
:1003e4000000000000000000044b10b5002b03d0f7
:1003f4000349044800e000bf10bdc04600000000ef
:0804040054000020000000007c
:020000040000fa
:10040c0010b50b480168002905d14368002b02d1b7
:10041c0000f06df810bd04008368064a9bb20c34e2
:10042c009b009b5842682000984780002018e9e701
:08043c0074030000d00400006d
:020000040000fa
:100444001e1819181c182c1834182e182b182d18af
:100454002618281837180318111840183818301897
:040464000718000075
:020000040000fa
:1004680080b500affff72efefff72afffff7f0fe7b
:100478004320fff73fff024b1800fff7c5fef5e7e3
:04048800c027090080
:020000040000fa
:10048c001e1819181c182c1834182e182b182d1867
:10049c00261828183718031811184018381830184f
:0404ac00071800002d
:020000040000fa
:1004b000002310b5934206d103201840421e9041fc
:0e04c0009b08c01810bdc45ccc540133f2e799
:020000040000fa
:0204ce00fee747
:020000040000fa
:1004d000e5040000b1040000f7040000f704000088
:0404e000f70400001d
:020000040000fa
:1004e4008a18914201d10020704700230b7001311a
:0204f400f7e728
:020000040000fa
:0404f600002070472b
:020000040000fa
:0204fa00704749
:020000040000fa
:0204fc00704747
:020000040000fa
:0200000400807a
:04400000ff00fe03bc
:020000040000fa
:0200000400807a
:0440040000fcfdffc0
:00000001FF
