:020000040000fa
:10000000f03f0020f1030000070600000706000093
:1000100000000000000000000000000000000000e0
:1000200000000000000000000000000007060000c3
:1000300000000000000000000706000007060000a6
:10004000070600000706000007060000070600007c
:10005000070600000706000007060000070600006c
:100060000706000007060000dd010000070600008b
:10007000070600000706000007060000070600004c
:10008000070600000706000007060000070600003c
:10009000070600000706000007060000070600002c
:0c00a0000706000007060000070600002d
:020000040000fa
:1000ac00f8b5c046f8bc08bc9e467047bd040000bd
:1000bc00f8b5c046f8bc08bc9e46704795040000d5
:020000040000fa
:1000cc0080b582b000af0200fb1d1a70fb1d1b78bf
:1000dc007f2b09d8fb1d1b781a001f231a40044bd9
:1000ec00012191400a001a60c046bd4602b080bd95
:1000fc0000e100e080b500af154b0422da61154b2e
:10010c00154a1a60134bd22252429a81114bc022cb
:10011c0092025a60c0460f4bdb6904221340042b39
:10012c00f9d00c4b1a680b4b02210a431a60c046db
:10013c00084bdb6902221340022bf9d0054b042239
:10014c009a750a20fff7bcffc046bd4680bdc0466d
:10015c0000080040000800428400106080b582b0a6
:10016c0000af0200fb1d1a70c046084b1b7edbb2b1
:10017c001a0001231340012bf7d1044afb1d1b78f5
:10018c009bb21385c046bd4602b080bd000800423c
:10019c0080b582b000af78600ee0c0460b4b1b7e82
:1001ac00dbb21a0001231340012bf7d17b685a1cd8
:1001bc007a601a78054b1a857b681b78002becd17a
:1001cc00c046c046bd4602b080bdc04600080042d5
:1001dc0080b582b000af0b4b1b7edbb21a00042340
:1001ec001340042b09d1074b1b8d9ab2fb1d1a70bf
:1001fc00fb1d1b781800fff7b1ffc046bd4602b0cf
:08020c0080bdc046000800425d
:020000040000fa
:1002140080b500af054b06225a6000f009f800f0e3
:100224003bf800f059f8c046bd4680bd004000418f
:1002340090b583b000af164b1a685b685c03d00cb2
:100244002043d90c03009b029b0a7b60114b7a6804
:100254009a63104b00225a75c0460e4b9b690422c8
:100264001340042bf9d0c0460a4bdb68102213401c
:10027400102bf9d1074b1b7ddbb206498022524279
:100284001343dbb20b75c046bd4603b090bdc046f8
:10029400206080000010004080b500af0c4b0d4a78
:1002a4001a62c0460a4b5b6804221340042bf9d03f
:1002b400074ad0234021d150c046054ad023d35801
:1002c40040221340402bf8d1c046c046bd4680bdf5
:1002d400001c00400601010080b500af8223db054d
:1002e400134a1a608223db05402201219954822398
:1002f400db054122012199548223db055622062184
:1003040099548223db055722002199548223db056b
:100314003022332199548223db059a698223db0539
:10032400802109040a439a61c046bd4680bdc04687
:040334000100800044
:020000040000fa
:1003380080b582b000af786002e07b68013b7b60eb
:100348007b68002bf9d1c046c046bd4602b080bdcf
:1003580080b500af8223db05802212045a61c046b3
:10036800bd4680bd80b500af8223db058022120424
:100378009a61c046bd4680bd80b500af8223db05cb
:0c03880080221204da61c046bd4680bd30
:020000040000fa
:1003940000230e4a10b513600d4a13600d4a136012
:1003a4000d4a13600d4a13600d4a53621361013301
:1003b400936000f028f900f026f90a4c0a4b9c429d
:1003c40000d310bd08cc9847f8e7c0467000002061
:1003d4000c00002008000020000000200400002081
:0c03e40010000020b8000000bc00000069
:020000040000fa
:1003f0000d4b002b00d098470c4b002b00d098479a
:1004000000f088f80a4bff2293430a4a93600a4b94
:1004100098470a4b002b00d09847094b002b00d07f
:10042000984700f05bf8fee70000000000000000c5
:100430000000000000ed00e0950300000000000057
:0404400000000000b8
:020000040000fa
:10044400740000200400000001000000000000000f
:1004540050000020200000000000000000000020e8
:1004640050000000000000007000002004000000a4
:1004740000000000780000200400000001000000db
:1004840000000000000000000000000066666666d0
:020000040000fa
:1004940010b5064c2378002b07d1054b002b02d056
:1004a400044800e000bf0123237010bd5000002069
:1004b4000000000000000000044b10b5002b03d026
:1004c4000349044800e000bf10bdc046000000001e
:0804d4005400002000000000ac
:020000040000fa
:1004dc0080b500affff798fefff70cfe074b180036
:1004ec00fff756fe064b1800fff752fefff742ffd0
:1004fc00044b1800fff71afff4e7c0464c05000048
:08050c006805000080ee3600d6
:020000040000fa
:1005140010b50b480168002905d14368002b02d1ae
:1005240000f070f810bd04008368064a9bb20c34d6
:100534009b009b5842682000984780002018e9e7f8
:0805440044040000dc05000086
:020000040000fa
:10054c00535049205765617468657220436c696328
:10055c006b204578616d706c650a000044756d6d9b
:09056c007920446174613a0a002f
:020000040000fa
:100575001e1819181c182c1834182e182b182d187d
:100585002618281837180318111840183818301865
:040595000718000043
:020000040000fa
:100599001e1819181c182c1834182e182b182d1859
:1005a9002618281837180318111840183818301841
:0405b900071800001f
:020000040000fa
:1005be00002310b5934206d103201840421e9041ed
:0e05ce009b08c01810bdc45ccc540133f2e78a
:020000040000fa
:1005dc00f1050000bf050000030600000306000043
:0405ec000306000002
:020000040000fa
:1005f0008a18914201d10020704700230b7001310d
:02060000f7e71a
:020000040000fa
:04060200002070471d
:020000040000fa
:02060600fee70d
:020000040000fa
:02060800704739
:020000040000fa
:02060a00704737
:020000040000fa
:0200000400807a
:04400000ff00fe03bc
:020000040000fa
:0200000400807a
:0440040000fcfdffc0
:00000001FF
