:020000040000fa
:10000000f03f002029010000b3020000b30200000d
:1000100000000000000000000000000000000000e0
:10002000000000000000000000000000b30200001b
:100030000000000000000000b3020000b302000056
:10004000b3020000b3020000b3020000b3020000dc
:10005000b3020000b3020000b3020000b3020000cc
:10006000b3020000b3020000b3020000b3020000bc
:10007000b3020000b3020000b3020000b3020000ac
:10008000b3020000b3020000b3020000b30200009c
:10009000b3020000b3020000b3020000b30200008c
:0c00a000b3020000b3020000b302000035
:020000040000fa
:1000ac00f8b5c046f8bc08bc9e467047f501000088
:1000bc00f8b5c046f8bc08bc9e467047cd010000a0
:020000040000fa
:1000cc0000230e4a10b513600d4a13600d4a1360dd
:1000dc000d4a13600d4a13600d4a536213610133cc
:1000ec00936000f0fdf800f0fbf80a4c0a4b9c42c0
:1000fc0000d310bd08cc9847f8e7c046700000202c
:10010c000c0000200800002000000020040000204b
:0c011c0010000020b8000000bc00000033
:020000040000fa
:100128000d4b002b00d098470c4b002b00d0984764
:1001380000f06cf80a4bff2293430a4a93600a4b7b
:1001480098470a4b002b00d09847094b002b00d04a
:10015800984700f0bef8fee700000000000000002d
:100168000000000000ed00e0cd00000000000000ed
:040178000000000083
:020000040000fa
:10017c0074000020040000000100000000000000da
:10018c0050000020200000000000000000000020b3
:10019c00500000000000000070000020040000006f
:1001ac0000000000780000200400000001000000a6
:1001bc00000000000000000000000000666666669b
:020000040000fa
:1001cc0010b5064c2378002b07d1054b002b02d021
:1001dc00044800e000bf0123237010bd5000002034
:1001ec000000000000000000044b10b5002b03d0f1
:1001fc000349044800e000bf10bdc04600000000e9
:08020c00540000200000000076
:020000040000fa
:1002140010b50b480168002905d14368002b02d1b1
:1002240000f061f810bd04008368064a9bb20c34e8
:100234009b009b5842682000984780002018e9e7fb
:080244007c010000b40200007f
:020000040000fa
:10024c001e1819181c182c1834182e182b182d18a9
:10025c002618281837180318111840183818301891
:04026c00071800006f
:020000040000fa
:100270001e1819181c182c1834182e182b182d1885
:10028000261828183718031811184018381830186d
:04029000071800004b
:020000040000fa
:10029400002310b5934206d103201840421e90411a
:0e02a4009b08c01810bdc45ccc540133f2e7b7
:020000040000fa
:0202b200fee765
:020000040000fa
:1002b400c902000095020000e7020000e702000006
:0402c400e70200004d
:020000040000fa
:1002c8008a18914201d10020704700230b70013138
:0202d800f7e746
:020000040000fa
:0c02da0080b500af00231800bd4680bdb9
:020000040000fa
:0402e600002070473d
:020000040000fa
:0202ea0070475b
:020000040000fa
:0202ec00704759
:00000001FF
